{
  "contractName": "DAO",
  "abi": [
    {
      "inputs": [
        {
          "internalType": "uint256",
          "name": "contributionTime",
          "type": "uint256"
        },
        {
          "internalType": "uint256",
          "name": "_voteTime",
          "type": "uint256"
        },
        {
          "internalType": "uint256",
          "name": "_quorum",
          "type": "uint256"
        }
      ],
      "stateMutability": "nonpayable",
      "type": "constructor"
    },
    {
      "inputs": [],
      "name": "admin",
      "outputs": [
        {
          "internalType": "address",
          "name": "",
          "type": "address"
        }
      ],
      "stateMutability": "view",
      "type": "function"
    },
    {
      "inputs": [],
      "name": "availableFunds",
      "outputs": [
        {
          "internalType": "uint256",
          "name": "",
          "type": "uint256"
        }
      ],
      "stateMutability": "view",
      "type": "function"
    },
    {
      "inputs": [],
      "name": "contributionEnd",
      "outputs": [
        {
          "internalType": "uint256",
          "name": "",
          "type": "uint256"
        }
      ],
      "stateMutability": "view",
      "type": "function"
    },
    {
      "inputs": [
        {
          "internalType": "address",
          "name": "",
          "type": "address"
        }
      ],
      "name": "investors",
      "outputs": [
        {
          "internalType": "bool",
          "name": "",
          "type": "bool"
        }
      ],
      "stateMutability": "view",
      "type": "function"
    },
    {
      "inputs": [],
      "name": "nextProposalId",
      "outputs": [
        {
          "internalType": "uint256",
          "name": "",
          "type": "uint256"
        }
      ],
      "stateMutability": "view",
      "type": "function"
    },
    {
      "inputs": [
        {
          "internalType": "uint256",
          "name": "",
          "type": "uint256"
        }
      ],
      "name": "proposals",
      "outputs": [
        {
          "internalType": "uint256",
          "name": "id",
          "type": "uint256"
        },
        {
          "internalType": "string",
          "name": "name",
          "type": "string"
        },
        {
          "internalType": "uint256",
          "name": "amount",
          "type": "uint256"
        },
        {
          "internalType": "address payable",
          "name": "recipient",
          "type": "address"
        },
        {
          "internalType": "uint256",
          "name": "votes",
          "type": "uint256"
        },
        {
          "internalType": "uint256",
          "name": "end",
          "type": "uint256"
        },
        {
          "internalType": "bool",
          "name": "executed",
          "type": "bool"
        }
      ],
      "stateMutability": "view",
      "type": "function"
    },
    {
      "inputs": [],
      "name": "quorum",
      "outputs": [
        {
          "internalType": "uint256",
          "name": "",
          "type": "uint256"
        }
      ],
      "stateMutability": "view",
      "type": "function"
    },
    {
      "inputs": [
        {
          "internalType": "address",
          "name": "",
          "type": "address"
        }
      ],
      "name": "shares",
      "outputs": [
        {
          "internalType": "uint256",
          "name": "",
          "type": "uint256"
        }
      ],
      "stateMutability": "view",
      "type": "function"
    },
    {
      "inputs": [],
      "name": "totalShares",
      "outputs": [
        {
          "internalType": "uint256",
          "name": "",
          "type": "uint256"
        }
      ],
      "stateMutability": "view",
      "type": "function"
    },
    {
      "inputs": [],
      "name": "voteTime",
      "outputs": [
        {
          "internalType": "uint256",
          "name": "",
          "type": "uint256"
        }
      ],
      "stateMutability": "view",
      "type": "function"
    },
    {
      "inputs": [
        {
          "internalType": "address",
          "name": "",
          "type": "address"
        },
        {
          "internalType": "uint256",
          "name": "",
          "type": "uint256"
        }
      ],
      "name": "votes",
      "outputs": [
        {
          "internalType": "bool",
          "name": "",
          "type": "bool"
        }
      ],
      "stateMutability": "view",
      "type": "function"
    },
    {
      "stateMutability": "payable",
      "type": "receive"
    },
    {
      "inputs": [],
      "name": "contribute",
      "outputs": [],
      "stateMutability": "payable",
      "type": "function"
    },
    {
      "inputs": [
        {
          "internalType": "uint256",
          "name": "amount",
          "type": "uint256"
        }
      ],
      "name": "redeemShare",
      "outputs": [],
      "stateMutability": "nonpayable",
      "type": "function"
    },
    {
      "inputs": [
        {
          "internalType": "uint256",
          "name": "amount",
          "type": "uint256"
        },
        {
          "internalType": "address",
          "name": "to",
          "type": "address"
        }
      ],
      "name": "transferShare",
      "outputs": [],
      "stateMutability": "nonpayable",
      "type": "function"
    },
    {
      "inputs": [
        {
          "internalType": "string",
          "name": "name",
          "type": "string"
        },
        {
          "internalType": "uint256",
          "name": "amount",
          "type": "uint256"
        },
        {
          "internalType": "address payable",
          "name": "recipient",
          "type": "address"
        }
      ],
      "name": "createProposal",
      "outputs": [],
      "stateMutability": "nonpayable",
      "type": "function"
    },
    {
      "inputs": [
        {
          "internalType": "uint256",
          "name": "proposalId",
          "type": "uint256"
        }
      ],
      "name": "vote",
      "outputs": [],
      "stateMutability": "nonpayable",
      "type": "function"
    },
    {
      "inputs": [
        {
          "internalType": "uint256",
          "name": "proposalId",
          "type": "uint256"
        }
      ],
      "name": "executeProposal",
      "outputs": [],
      "stateMutability": "nonpayable",
      "type": "function"
    },
    {
      "inputs": [
        {
          "internalType": "uint256",
          "name": "amount",
          "type": "uint256"
        },
        {
          "internalType": "address payable",
          "name": "to",
          "type": "address"
        }
      ],
      "name": "withdrawEther",
      "outputs": [],
      "stateMutability": "nonpayable",
      "type": "function"
    }
  ],
  "bytecode": "0x608060405234801562000010575f80fd5b50604051620023283803806200232883398181016040528101906200003691906200012f565b5f81118015620000465750606481105b62000088576040517f08c379a00000000000000000000000000000000000000000000000000000000081526004016200007f90620001e6565b60405180910390fd5b824262000096919062000233565b600681905550816008819055508060098190555033600a5f6101000a81548173ffffffffffffffffffffffffffffffffffffffff021916908373ffffffffffffffffffffffffffffffffffffffff1602179055505050506200026d565b5f80fd5b5f819050919050565b6200010b81620000f7565b811462000116575f80fd5b50565b5f81519050620001298162000100565b92915050565b5f805f60608486031215620001495762000148620000f3565b5b5f620001588682870162000119565b93505060206200016b8682870162000119565b92505060406200017e8682870162000119565b9150509250925092565b5f82825260208201905092915050565b7f71756f72756d206d757374206265206265747765656e203020616e64203130305f82015250565b5f620001ce60208362000188565b9150620001db8262000198565b602082019050919050565b5f6020820190508181035f830152620001ff81620001c0565b9050919050565b7f4e487b71000000000000000000000000000000000000000000000000000000005f52601160045260245ffd5b5f6200023f82620000f7565b91506200024c83620000f7565b925082820190508082111562000267576200026662000206565b5b92915050565b6120ad806200027b5f395ff3fe60806040526004361061010c575f3560e01c80636f7bc9be11610094578063ce56c45411610063578063ce56c45414610382578063ce7c2ac2146103aa578063d151b516146103e6578063d7bb99ba14610410578063f851a4401461041a5761012a565b80636f7bc9be146102b8578063868643df146102f45780639f2524ee1461031c578063bcf93dd6146103585761012a565b80631703a018116100db5780631703a018146101e85780632ab09d14146102125780633a98ef391461023c57806346fcff4c146102665780636ac1e01f146102905761012a565b80630121b93f1461012e578063013cf08b14610156578063039383e6146101985780630d61b519146101c05761012a565b3661012a573460055f8282546101229190611197565b925050819055005b5f80fd5b348015610139575f80fd5b50610154600480360381019061014f9190611205565b610444565b005b348015610161575f80fd5b5061017c60048036038101906101779190611205565b61068a565b60405161018f9796959493929190611322565b60405180910390f35b3480156101a3575f80fd5b506101be60048036038101906101b991906113d1565b610779565b005b3480156101cb575f80fd5b506101e660048036038101906101e19190611205565b6108f7565b005b3480156101f3575f80fd5b506101fc610ace565b604051610209919061140f565b60405180910390f35b34801561021d575f80fd5b50610226610ad4565b604051610233919061140f565b60405180910390f35b348015610247575f80fd5b50610250610ada565b60405161025d919061140f565b60405180910390f35b348015610271575f80fd5b5061027a610ae0565b604051610287919061140f565b60405180910390f35b34801561029b575f80fd5b506102b660048036038101906102b1919061157e565b610ae6565b005b3480156102c3575f80fd5b506102de60048036038101906102d991906115ea565b610cff565b6040516102eb9190611615565b60405180910390f35b3480156102ff575f80fd5b5061031a60048036038101906103159190611205565b610d1b565b005b348015610327575f80fd5b50610342600480360381019061033d919061162e565b610e92565b60405161034f9190611615565b60405180910390f35b348015610363575f80fd5b5061036c610ebc565b604051610379919061140f565b60405180910390f35b34801561038d575f80fd5b506103a860048036038101906103a3919061166c565b610ec2565b005b3480156103b5575f80fd5b506103d060048036038101906103cb91906115ea565b610f5f565b6040516103dd919061140f565b60405180910390f35b3480156103f1575f80fd5b506103fa610f74565b604051610407919061140f565b60405180910390f35b610418610f7a565b005b348015610425575f80fd5b5061042e611097565b60405161043b91906116b9565b60405180910390f35b600115155f803373ffffffffffffffffffffffffffffffffffffffff1673ffffffffffffffffffffffffffffffffffffffff1681526020019081526020015f205f9054906101000a900460ff161515146104d3576040517f08c379a00000000000000000000000000000000000000000000000000000000081526004016104ca9061171c565b60405180910390fd5b5f60035f8381526020019081526020015f2090505f151560025f3373ffffffffffffffffffffffffffffffffffffffff1673ffffffffffffffffffffffffffffffffffffffff1681526020019081526020015f205f8481526020019081526020015f205f9054906101000a900460ff16151514610585576040517f08c379a000000000000000000000000000000000000000000000000000000000815260040161057c906117aa565b60405180910390fd5b806005015442106105cb576040517f08c379a00000000000000000000000000000000000000000000000000000000081526004016105c290611838565b60405180910390fd5b600160025f3373ffffffffffffffffffffffffffffffffffffffff1673ffffffffffffffffffffffffffffffffffffffff1681526020019081526020015f205f8481526020019081526020015f205f6101000a81548160ff02191690831515021790555060015f3373ffffffffffffffffffffffffffffffffffffffff1673ffffffffffffffffffffffffffffffffffffffff1681526020019081526020015f2054816004015f82825461067f9190611197565b925050819055505050565b6003602052805f5260405f205f91509050805f0154908060010180546106af90611883565b80601f01602080910402602001604051908101604052809291908181526020018280546106db90611883565b80156107265780601f106106fd57610100808354040283529160200191610726565b820191905f5260205f20905b81548152906001019060200180831161070957829003601f168201915b505050505090806002015490806003015f9054906101000a900473ffffffffffffffffffffffffffffffffffffffff1690806004015490806005015490806006015f9054906101000a900460ff16905087565b8160015f3373ffffffffffffffffffffffffffffffffffffffff1673ffffffffffffffffffffffffffffffffffffffff1681526020019081526020015f205410156107f9576040517f08c379a00000000000000000000000000000000000000000000000000000000081526004016107f0906118fd565b60405180910390fd5b8160015f3373ffffffffffffffffffffffffffffffffffffffff1673ffffffffffffffffffffffffffffffffffffffff1681526020019081526020015f205f828254610845919061191b565b925050819055508160015f8373ffffffffffffffffffffffffffffffffffffffff1673ffffffffffffffffffffffffffffffffffffffff1681526020019081526020015f205f8282546108989190611197565b9250508190555060015f808373ffffffffffffffffffffffffffffffffffffffff1673ffffffffffffffffffffffffffffffffffffffff1681526020019081526020015f205f6101000a81548160ff0219169083151502179055505050565b600a5f9054906101000a900473ffffffffffffffffffffffffffffffffffffffff1673ffffffffffffffffffffffffffffffffffffffff163373ffffffffffffffffffffffffffffffffffffffff1614610986576040517f08c379a000000000000000000000000000000000000000000000000000000000815260040161097d90611998565b60405180910390fd5b5f60035f8381526020019081526020015f20905080600501544210156109e1576040517f08c379a00000000000000000000000000000000000000000000000000000000081526004016109d890611a26565b60405180910390fd5b5f1515816006015f9054906101000a900460ff16151514610a37576040517f08c379a0000000000000000000000000000000000000000000000000000000008152600401610a2e90611ab4565b60405180910390fd5b60095460646004548360040154610a4e9190611aff565b610a589190611b2f565b1015610a99576040517f08c379a0000000000000000000000000000000000000000000000000000000008152600401610a9090611be0565b60405180910390fd5b610aca8160020154826003015f9054906101000a900473ffffffffffffffffffffffffffffffffffffffff166110bc565b5050565b60095481565b60075481565b60045481565b60055481565b600115155f803373ffffffffffffffffffffffffffffffffffffffff1673ffffffffffffffffffffffffffffffffffffffff1681526020019081526020015f205f9054906101000a900460ff16151514610b75576040517f08c379a0000000000000000000000000000000000000000000000000000000008152600401610b6c9061171c565b60405180910390fd5b816005541015610bba576040517f08c379a0000000000000000000000000000000000000000000000000000000008152600401610bb190611c48565b60405180910390fd5b6040518060e0016040528060075481526020018481526020018381526020018273ffffffffffffffffffffffffffffffffffffffff1681526020015f815260200160085442610c099190611197565b81526020015f151581525060035f60075481526020019081526020015f205f820151815f01556020820151816001019081610c449190611e03565b50604082015181600201556060820151816003015f6101000a81548173ffffffffffffffffffffffffffffffffffffffff021916908373ffffffffffffffffffffffffffffffffffffffff1602179055506080820151816004015560a0820151816005015560c0820151816006015f6101000a81548160ff0219169083151502179055509050508160055f828254610cdc919061191b565b9250508190555060075f815480929190610cf590611ed2565b9190505550505050565b5f602052805f5260405f205f915054906101000a900460ff1681565b8060015f3373ffffffffffffffffffffffffffffffffffffffff1673ffffffffffffffffffffffffffffffffffffffff1681526020019081526020015f20541015610d9b576040517f08c379a0000000000000000000000000000000000000000000000000000000008152600401610d92906118fd565b60405180910390fd5b806005541015610de0576040517f08c379a0000000000000000000000000000000000000000000000000000000008152600401610dd790611f63565b60405180910390fd5b8060015f3373ffffffffffffffffffffffffffffffffffffffff1673ffffffffffffffffffffffffffffffffffffffff1681526020019081526020015f205f828254610e2c919061191b565b925050819055508060055f828254610e44919061191b565b925050819055503373ffffffffffffffffffffffffffffffffffffffff166108fc8290811502906040515f60405180830381858888f19350505050158015610e8e573d5f803e3d5ffd5b5050565b6002602052815f5260405f20602052805f5260405f205f915091509054906101000a900460ff1681565b60085481565b600a5f9054906101000a900473ffffffffffffffffffffffffffffffffffffffff1673ffffffffffffffffffffffffffffffffffffffff163373ffffffffffffffffffffffffffffffffffffffff1614610f51576040517f08c379a0000000000000000000000000000000000000000000000000000000008152600401610f4890611998565b60405180910390fd5b610f5b82826110bc565b5050565b6001602052805f5260405f205f915090505481565b60065481565b6006544210610fbe576040517f08c379a0000000000000000000000000000000000000000000000000000000008152600401610fb590611ff1565b60405180910390fd5b60015f803373ffffffffffffffffffffffffffffffffffffffff1673ffffffffffffffffffffffffffffffffffffffff1681526020019081526020015f205f6101000a81548160ff0219169083151502179055503460015f3373ffffffffffffffffffffffffffffffffffffffff1673ffffffffffffffffffffffffffffffffffffffff1681526020019081526020015f205f82825461105e9190611197565b925050819055503460045f8282546110769190611197565b925050819055503460055f82825461108e9190611197565b92505081905550565b600a5f9054906101000a900473ffffffffffffffffffffffffffffffffffffffff1681565b600554821115611101576040517f08c379a00000000000000000000000000000000000000000000000000000000081526004016110f890612059565b60405180910390fd5b8160055f828254611112919061191b565b925050819055508073ffffffffffffffffffffffffffffffffffffffff166108fc8390811502906040515f60405180830381858888f1935050505015801561115c573d5f803e3d5ffd5b505050565b5f819050919050565b7f4e487b71000000000000000000000000000000000000000000000000000000005f52601160045260245ffd5b5f6111a182611161565b91506111ac83611161565b92508282019050808211156111c4576111c361116a565b5b92915050565b5f604051905090565b5f80fd5b5f80fd5b6111e481611161565b81146111ee575f80fd5b50565b5f813590506111ff816111db565b92915050565b5f6020828403121561121a576112196111d3565b5b5f611227848285016111f1565b91505092915050565b61123981611161565b82525050565b5f81519050919050565b5f82825260208201905092915050565b5f5b8381101561127657808201518184015260208101905061125b565b5f8484015250505050565b5f601f19601f8301169050919050565b5f61129b8261123f565b6112a58185611249565b93506112b5818560208601611259565b6112be81611281565b840191505092915050565b5f73ffffffffffffffffffffffffffffffffffffffff82169050919050565b5f6112f2826112c9565b9050919050565b611302816112e8565b82525050565b5f8115159050919050565b61131c81611308565b82525050565b5f60e0820190506113355f83018a611230565b81810360208301526113478189611291565b90506113566040830188611230565b61136360608301876112f9565b6113706080830186611230565b61137d60a0830185611230565b61138a60c0830184611313565b98975050505050505050565b5f6113a0826112c9565b9050919050565b6113b081611396565b81146113ba575f80fd5b50565b5f813590506113cb816113a7565b92915050565b5f80604083850312156113e7576113e66111d3565b5b5f6113f4858286016111f1565b9250506020611405858286016113bd565b9150509250929050565b5f6020820190506114225f830184611230565b92915050565b5f80fd5b5f80fd5b7f4e487b71000000000000000000000000000000000000000000000000000000005f52604160045260245ffd5b61146682611281565b810181811067ffffffffffffffff8211171561148557611484611430565b5b80604052505050565b5f6114976111ca565b90506114a3828261145d565b919050565b5f67ffffffffffffffff8211156114c2576114c1611430565b5b6114cb82611281565b9050602081019050919050565b828183375f83830152505050565b5f6114f86114f3846114a8565b61148e565b9050828152602081018484840111156115145761151361142c565b5b61151f8482856114d8565b509392505050565b5f82601f83011261153b5761153a611428565b5b813561154b8482602086016114e6565b91505092915050565b61155d816112e8565b8114611567575f80fd5b50565b5f8135905061157881611554565b92915050565b5f805f60608486031215611595576115946111d3565b5b5f84013567ffffffffffffffff8111156115b2576115b16111d7565b5b6115be86828701611527565b93505060206115cf868287016111f1565b92505060406115e08682870161156a565b9150509250925092565b5f602082840312156115ff576115fe6111d3565b5b5f61160c848285016113bd565b91505092915050565b5f6020820190506116285f830184611313565b92915050565b5f8060408385031215611644576116436111d3565b5b5f611651858286016113bd565b9250506020611662858286016111f1565b9150509250929050565b5f8060408385031215611682576116816111d3565b5b5f61168f858286016111f1565b92505060206116a08582860161156a565b9150509250929050565b6116b381611396565b82525050565b5f6020820190506116cc5f8301846116aa565b92915050565b7f6f6e6c7920696e766573746f72730000000000000000000000000000000000005f82015250565b5f611706600e83611249565b9150611711826116d2565b602082019050919050565b5f6020820190508181035f830152611733816116fa565b9050919050565b7f696e766573746f722063616e206f6e6c7920766f7465206f6e636520666f72205f8201527f612070726f706f73616c00000000000000000000000000000000000000000000602082015250565b5f611794602a83611249565b915061179f8261173a565b604082019050919050565b5f6020820190508181035f8301526117c181611788565b9050919050565b7f63616e206f6e6c7920766f746520756e74696c2070726f706f73616c20656e645f8201527f2064617465000000000000000000000000000000000000000000000000000000602082015250565b5f611822602583611249565b915061182d826117c8565b604082019050919050565b5f6020820190508181035f83015261184f81611816565b9050919050565b7f4e487b71000000000000000000000000000000000000000000000000000000005f52602260045260245ffd5b5f600282049050600182168061189a57607f821691505b6020821081036118ad576118ac611856565b5b50919050565b7f6e6f7420656e6f756768207368617265730000000000000000000000000000005f82015250565b5f6118e7601183611249565b91506118f2826118b3565b602082019050919050565b5f6020820190508181035f830152611914816118db565b9050919050565b5f61192582611161565b915061193083611161565b92508282039050818111156119485761194761116a565b5b92915050565b7f6f6e6c792061646d696e000000000000000000000000000000000000000000005f82015250565b5f611982600a83611249565b915061198d8261194e565b602082019050919050565b5f6020820190508181035f8301526119af81611976565b9050919050565b7f63616e6e6f7420657865637574652070726f706f73616c206265666f726520655f8201527f6e64206461746500000000000000000000000000000000000000000000000000602082015250565b5f611a10602783611249565b9150611a1b826119b6565b604082019050919050565b5f6020820190508181035f830152611a3d81611a04565b9050919050565b7f63616e6e6f7420657865637574652070726f706f73616c20616c7265616479205f8201527f6578656375746564000000000000000000000000000000000000000000000000602082015250565b5f611a9e602883611249565b9150611aa982611a44565b604082019050919050565b5f6020820190508181035f830152611acb81611a92565b9050919050565b7f4e487b71000000000000000000000000000000000000000000000000000000005f52601260045260245ffd5b5f611b0982611161565b9150611b1483611161565b925082611b2457611b23611ad2565b5b828204905092915050565b5f611b3982611161565b9150611b4483611161565b9250828202611b5281611161565b91508282048414831517611b6957611b6861116a565b5b5092915050565b7f63616e6e6f7420657865637574652070726f706f73616c207769746820766f745f8201527f657320232062656c6f772071756f72756d000000000000000000000000000000602082015250565b5f611bca603183611249565b9150611bd582611b70565b604082019050919050565b5f6020820190508181035f830152611bf781611bbe565b9050919050565b7f616d6f756e7420746f6f206269670000000000000000000000000000000000005f82015250565b5f611c32600e83611249565b9150611c3d82611bfe565b602082019050919050565b5f6020820190508181035f830152611c5f81611c26565b9050919050565b5f819050815f5260205f209050919050565b5f6020601f8301049050919050565b5f82821b905092915050565b5f60088302611cc27fffffffffffffffffffffffffffffffffffffffffffffffffffffffffffffffff82611c87565b611ccc8683611c87565b95508019841693508086168417925050509392505050565b5f819050919050565b5f611d07611d02611cfd84611161565b611ce4565b611161565b9050919050565b5f819050919050565b611d2083611ced565b611d34611d2c82611d0e565b848454611c93565b825550505050565b5f90565b611d48611d3c565b611d53818484611d17565b505050565b5b81811015611d7657611d6b5f82611d40565b600181019050611d59565b5050565b601f821115611dbb57611d8c81611c66565b611d9584611c78565b81016020851015611da4578190505b611db8611db085611c78565b830182611d58565b50505b505050565b5f82821c905092915050565b5f611ddb5f1984600802611dc0565b1980831691505092915050565b5f611df38383611dcc565b9150826002028217905092915050565b611e0c8261123f565b67ffffffffffffffff811115611e2557611e24611430565b5b611e2f8254611883565b611e3a828285611d7a565b5f60209050601f831160018114611e6b575f8415611e59578287015190505b611e638582611de8565b865550611eca565b601f198416611e7986611c66565b5f5b82811015611ea057848901518255600182019150602085019450602081019050611e7b565b86831015611ebd5784890151611eb9601f891682611dcc565b8355505b6001600288020188555050505b505050505050565b5f611edc82611161565b91507fffffffffffffffffffffffffffffffffffffffffffffffffffffffffffffffff8203611f0e57611f0d61116a565b5b600182019050919050565b7f6e6f7420656e6f75676820617661696c61626c652066756e64730000000000005f82015250565b5f611f4d601a83611249565b9150611f5882611f19565b602082019050919050565b5f6020820190508181035f830152611f7a81611f41565b9050919050565b7f63616e6e6f7420636f6e7472696275746520616674657220636f6e74726962755f8201527f74696f6e456e6400000000000000000000000000000000000000000000000000602082015250565b5f611fdb602783611249565b9150611fe682611f81565b604082019050919050565b5f6020820190508181035f83015261200881611fcf565b9050919050565b7f6e6f7420656e6f75676820617661696c61626c6546756e6473000000000000005f82015250565b5f612043601983611249565b915061204e8261200f565b602082019050919050565b5f6020820190508181035f83015261207081612037565b905091905056fea264697066735822122029a1fa4dc71f58f060c38f0939e95de23f3a61201bf48290b9b237a66e26336a64736f6c63430008150033",
  "immutableReferences": {},
  "source": "// SPDX-License-Identifier: MIT\r\npragma solidity ^0.8.0;\r\n\r\ncontract DAO {\r\n  struct Proposal {\r\n    uint id;\r\n    string name;\r\n    uint amount;\r\n    address payable recipient;\r\n    uint votes;\r\n    uint end;\r\n    bool executed;\r\n  }\r\n\r\n  mapping(address => bool) public investors;\r\n  mapping(address => uint) public shares;\r\n  mapping(address => mapping(uint => bool)) public votes;\r\n  mapping(uint => Proposal) public proposals;\r\n  uint public totalShares;\r\n  uint public availableFunds;\r\n  uint public contributionEnd;\r\n  uint public nextProposalId;\r\n  uint public voteTime;\r\n  uint public quorum;\r\n  address public admin;\r\n\r\n  constructor(\r\n    uint contributionTime, \r\n    uint _voteTime,\r\n    uint _quorum) {\r\n    require(_quorum > 0 && _quorum < 100, 'quorum must be between 0 and 100');\r\n    contributionEnd = block.timestamp + contributionTime;\r\n    voteTime = _voteTime;\r\n    quorum = _quorum;\r\n    admin = msg.sender;\r\n  }\r\n\r\n  function contribute() payable external {\r\n    require(block.timestamp < contributionEnd, 'cannot contribute after contributionEnd');\r\n    investors[msg.sender] = true;\r\n    shares[msg.sender] += msg.value;\r\n    totalShares += msg.value;\r\n    availableFunds += msg.value;\r\n  }\r\n\r\n  function redeemShare(uint amount) external {\r\n    require(shares[msg.sender] >= amount, 'not enough shares');\r\n    require(availableFunds >= amount, 'not enough available funds');\r\n    shares[msg.sender] -= amount;\r\n    availableFunds -= amount;\r\n    payable(msg.sender).transfer(amount);\r\n  }\r\n    \r\n  function transferShare(uint amount, address to) external {\r\n    require(shares[msg.sender] >= amount, 'not enough shares');\r\n    shares[msg.sender] -= amount;\r\n    shares[to] += amount;\r\n    investors[to] = true;\r\n  }\r\n\r\n  function createProposal(\r\n    string memory name,\r\n    uint amount,\r\n    address payable recipient) \r\n    public \r\n    onlyInvestors() {\r\n    require(availableFunds >= amount, 'amount too big');\r\n    proposals[nextProposalId] = Proposal(\r\n      nextProposalId,\r\n      name,\r\n      amount,\r\n      recipient,\r\n      0,\r\n      block.timestamp + voteTime,\r\n      false\r\n    );\r\n    availableFunds -= amount;\r\n    nextProposalId++;\r\n  }\r\n\r\n  function vote(uint proposalId) external onlyInvestors() {\r\n    Proposal storage proposal = proposals[proposalId];\r\n    require(votes[msg.sender][proposalId] == false, 'investor can only vote once for a proposal');\r\n    require(block.timestamp < proposal.end, 'can only vote until proposal end date');\r\n    votes[msg.sender][proposalId] = true;\r\n    proposal.votes += shares[msg.sender];\r\n  }\r\n\r\n  function executeProposal(uint proposalId) external onlyAdmin() {\r\n    Proposal storage proposal = proposals[proposalId];\r\n    require(block.timestamp >= proposal.end, 'cannot execute proposal before end date');\r\n    require(proposal.executed == false, 'cannot execute proposal already executed');\r\n    require((proposal.votes / totalShares) * 100 >= quorum, 'cannot execute proposal with votes # below quorum');\r\n    _transferEther(proposal.amount, proposal.recipient);\r\n  }\r\n\r\n  function withdrawEther(uint amount, address payable to) external onlyAdmin() {\r\n    _transferEther(amount, to);\r\n  }\r\n  \r\n  function _transferEther(uint amount, address payable to) internal {\r\n    require(amount <= availableFunds, 'not enough availableFunds');\r\n    availableFunds -= amount;\r\n    to.transfer(amount);\r\n  }\r\n\r\n  //For ether returns of proposal investments\r\n  receive() external payable {\r\n    availableFunds += msg.value;\r\n  }\r\n\r\n  modifier onlyInvestors() {\r\n    require(investors[msg.sender] == true, 'only investors');\r\n    _;\r\n  }\r\n\r\n  modifier onlyAdmin() {\r\n    require(msg.sender == admin, 'only admin');\r\n    _;\r\n  }\r\n}\r\n",
  "sourcePath": "C:\\Users\\fahad zulfiqar\\OneDrive\\Desktop\\web3\\DAO(Smart-contract)\\contracts\\DAO.sol",
  "compiler": {
    "name": "solc",
    "version": "0.8.21+commit.d9974bed.Emscripten.clang"
  },
  "schemaVersion": "3.4.16",
  "updatedAt": "2024-06-13T18:46:29.079Z",
  "devdoc": {
    "kind": "dev",
    "methods": {},
    "version": 1
  },
  "userdoc": {
    "kind": "user",
    "methods": {},
    "version": 1
  }
}